{"id":3224,"title":"Described Data","description":"Contract method to compute human-readable descriptions for signable data.","authors":["Richard Moore","Nick Johnson"],"status":"Stagnant","type":"Standards Track","category":"ERC","bucket":"others","created":"2021-01-23T00:00:00.000Z","requires":[191],"replaces":[],"supersededBy":[],"tags":[],"body":"\n\n## Abstract\n\nHuman-readable descriptions for machine executable operations,\ndescribed in higher level machine readable data, so that wallets\ncan provide meaningful feedback to the user describing the\naction the user is about to perform.\n\n\n## Motivation\n\nWhen using an Ethereum Wallet (e.g. MetaMask, Clef, Hardware\nWallets) users must accept and authorize signing messages or\nsending transactions.\n\nDue to the complexity of Ethereum transactions, wallets are very\nlimitd in their ability to provide insight into the contents of\ntransactions user are approving; outside special-cased support\nfor common transactions such as ERC20 transfers, this often amounts\nto asking the user to sign an opaque blob of binary data.\n\nThis EIP presents a method for dapp developers to enable a more\ncomfortable user experience by providing wallets with a means\nto generate a better description about what the contract claims\nwill happen.\n\nIt does not address malicious contracts which wish to lie, it\nonly addresses honest contracts that want to make their user's\nlife better. We believe that this is a reasonable security model,\nas transaction descriptions can be audited at the same time as\ncontract code, allowing auditors and code reviewers to check that\ntransaction descriptions are accurate as part of their review.\n\n\n## Specification\n\nThe **description string** and **described data** are generated\nsimultaneously by evaluating the contract\n(i.e. the **describer**), passing the **describer inputs** to the \nmethod:\n\n```solidity\nfunction eipXXXDescribe(bytes describer_inputs) view returns (string description_string, bytes described_data);\n```\n\nThe method must be executable in a static context, (i.e. any\nside effects, such as logX, sstore, etc.), including through\nindirect calls may be ignored.\n\nDuring evaluation, the `ADDRESS` (i.e. `to`), `CALLER`\n(i.e. `from`), `VALUE`, and `GASPRICE` must be the same as the\nvalues for the transaction being described, so that the\ncode generating the description can rely on them. For signing\n**described messages**, `VALUE` should always be 0.\n\nWhen executing the bytecode, best efforts should be made to\nensure `BLOCKHASH`, `NUMBER`, `TIMESTAMP` and `DIFFICULTY`\nmatch the `\"latest\"` block. The `COINBASE` should be the zero\naddress.\n\nThe method may revert, in which case the signing must be aborted.\n\n\n### New JSON-RPC Methods\n\nClients which manage private keys should expose additional\nmethods for interacting with the related accounts.\n\nIf an user interface is not present or expected for any other\naccount-based operations, the description strings should be\nignored and the described data used directly.\n\nThese JSON-RPC methods will also be implemented in standard\nEthereum libraries, so the JSON-RPC description is meant more\nof a canonical way to describe them.\n\n\n### Signing Described Messages\n\n```solidity\neth_signDescribedMessage(address, describer, describerInput)\n// Result: {\n//   description: \"text/plain;Hello World\",\n//   data: \"0x...\", // described data\n//   signature: \"0x...\"\n// }\n```\n\nCompute the **description string** and **described data** by\nevaluating the call to **describer**, with the\n**describerInput** passed to the ABI encoded call to\n`eipXXXDescription(bytes)`. The `VALUE` during execution must\nbe 0.\n\nIf the wallet contains a user interface for accepting or\ndenying signing a message, it should present the description\nstring to the user. Optionally, a wallet may wish to\nadditionally provide a way to examine the described data.\n\nIf accepted, the computed **described data** is signed\naccording to [EIP-191](./eip-191.md), with the *version\nbyte* of `0x00` and the *version specific data* of describer\naddress.\n\nThat is:\n\n```\n0x19   0x00   DESCRIBER_ADDRESS   0xDESCRIBED_DATA\n```\n\nThe returned result includes the **described data**, allowing\ndapps that use parameters computed in the contract to be\navailable.\n\n### Sending Described Transactions\n\n```solidity\neth_sendDescribedTransaction(address, {\n  to: \"0x...\",\n  value: 1234,\n  nonce: 42,\n  gas: 42000,\n  gasPrice: 9000000000,\n  describerInput: \"0x1234...\",\n})\n// Result: {\n//   description: \"text/plain;Hello World\",\n//   transaction: \"0x...\", // serialized signed transaction\n// }\n```\n\nCompute the **description string** and **described data** by\nevaluating the call to the **describer** `to`, with the\n**describerInput** passed  to the ABI encoded call to\n`eipXXXDescription(bytes)`.\n\nIf the wallet contains a user interface for accepting or\ndenying a transaction, it should present the description string\nalong with fee and value information. Optionally, a wallet may\nwish to additionally provide a way to further examine the\ntransaction.\n\nIf accepted, the transaction data is set to the computed\n**described data**, the derived transaction is signed and sent,\nand the **description string** and serialized signed\ntransaction is returned.\n\n\n### Signing Described Transaction\n\n```solidity\neth_signDescribedTransaction(address, {\n  to: \"0x...\",\n  value: 1234,\n  nonce: 42,\n  gas: 42000,\n  gasPrice: 9000000000,\n  describerInput: \"0x1234...\",\n})\n// Result: {\n//   description: \"text/plain;Hello World\",\n//   transaction: \"0x...\", // serialized signed transaction\n// }\n```\n\nCompute the **description string** and **described data** by\nevaluating the call to the **describer** `to`, with the\n**describerInput** passed  to the ABI encoded call to\n`eipXXXDescription(bytes)`.\n\nIf the wallet contains a user interface for accepting or\ndenying a transaction, it should present the description string\nalong with fee and value information. Optionally, a wallet may\nwish to additionally provide a way to further examine the\ntransaction.\n\nIf accepted, the transaction data is set to the computed\n**described data**, the derived transaction is signed (and not\nsent) and the **description string** and serialized signed\ntransaction is returned.\n\n### Description Strings\n\nA **description string** must begin with a mime-type followed\nby a semi-colon (`;`). This EIP specifies only the `text/plain`\nmime-type, but future EIPs may specify additional types to\nenable more rich processing, such as `text/markdown` so that\naddresses can be linkable within clients or to enable\nmulti-locale options, similar to multipart/form-data.\n\n\n## Rationale\n\n### Meta Description\n\nThere have been many attempts to solve this problem, many of\nwhich attempt to examine the encoded transaction data or\nmessage data directly.\n\nIn many cases, the information that would be necessary for a\nmeaningful description is not present in the final encoded\ntransaction data or message data.\n\nInstead this EIP uses an indirect description of the data.\n\nFor example, the `commit(bytes32)` method of ENS places a\ncommitement **hash** on-chain. The hash contains the\n**blinded** name and address; since the name is blinded, the\nencoded data (i.e. the hash) no longer contains the original\nvalues and is insufficient to access the necessary values to\nbe included in a description.\n\nBy instead describing the commitment indirectly (with the\noriginal information intact: NAME, ADDRESS and SECRET) a\nmeaningful description can be computed (e.g. \"commit to NAME for ADDRESS (with SECRET)\")\nand the matching data can be computed (i.e. `commit(hash(name, owner, secret))`).\n\n### Entangling the Contract Address\n\nTo prevent data being signed from one contract being used\nagainst another, the contract address is entanlged into\nboth the transaction (implicitly via the `to` field) and\nin messages by the EIP-191 versions specific data.\n\nThe use of the zero address is reserved.\n\n### Alternatives\n\n- NatSpec and company are a class of more complex languages that attempt to describe the encoded data directly. Because of the language complexity they often end up being quite large requiring entire runtime environments with ample processing power and memory, as well as additional sandboxing to reduce security concerns. One goal of this is to reduce the complexity to something that could execute on hardware wallets and other simple wallets. These also describe the data directly, which in many cases (such as blinded data), cannot adequately describe the data at all\n\n- Custom Languages; due to the complexity of Ethereum transactions, any language used would require a lot of expressiveness and re-inventing the wheel. The EVM already exists (it may not be ideal), but it is there and can handle everything necessary. \n\n- Format Strings (e.g. Trustless Signing UI Protocol; format strings can only operate on the class of regular languages, which in many cases is insufficient to describe an Ethereum transaction. This was an issue quite often during early attempts at solving this problem.\n\n- The signTypedData [EIP-712](./eip-712.md) has many parallels to what this EIP aims to solve\n\n- @TODO: More\n\n\n## Backwards Compatibility\n\nAll signatures for messages are generated using [EIP-191](./eip-191.md)\nwhich had a previously compatible version byte of `0x00`, so\nthere should be no concerns with backwards compatibility.\n\n\n## Test Cases\n\nAll test cases operate against the published and verified contracts:\n\n- Formatter: Ropsten @ 0x7a89c0521604008c93c97aa76950198bca73d933\n- TestFormatter: Ropsten @ 0xab3045aa85cbcabb06ed3f3fe968fa5457727270\n\nThe private key used for signing messages and transactions is:\n\n```\nprivateKey = \"0x6283185307179586476925286766559005768394338798750211641949889184\"\n```\n\n\n### Messages\n\n**Example: login with signed message**\n\n- sends selector login()\n- received data with selector doLogin(bytes32 timestamp)\n\n```\nInput:\n  Address:         0xab3045AA85cBCaBb06eD3F3FE968fA5457727270\n  Describer Input: 0xb34e97e800000000000000000000000000000000000000000000000000000000\n  i.e.             encode(\n                       [ \"bytes4\" ],\n                       [ SEL(\"login()\") ]\n                   )\n\nOutput:\n  Description:     text/plain;Log into ethereum.org?\n  Data:            0x14629d78000000000000000000000000000000000000000000000000000000006010d607\n  i.e.             encodeWithSelector(\"doLogin(bytes32)\", \"0x000000000000000000000000000000000000000000000000000000006010d607\" ]\n\nSigning:\n  Preimage:  0x1900ab3045aa85cbcabb06ed3f3fe968fa545772727014629d78000000000000000000000000000000000000000000000000000000006010d607\n  Signature: 0x8b9def29343c85797a580c5cd3607c06e78a53351219f9ba706b9985c1a3c91e702bf678e07f5daf5ef48b3e3cc581202de233904b72cf2c4f7d714ce92075b21c\n```\n\n### Transactions\n\nAll transaction test cases use the ropsten network (chainId: 3)\nand for all unspecified properties use 0.\n\n**Example: ERC-20 transfer**\n\n```\nInput:\n  Address:            0xab3045AA85cBCaBb06eD3F3FE968fA5457727270\n  Describer Input:    0xa9059cbb000000000000000000000000000000000000000000000000000000000000000000000000000000008ba1f109551bd432803012645ac136ddd64dba720000000000000000000000000000000000000000000000002b992b75cbeb6000\n  i.e.                encode(\n                          [ \"bytes4\", \"address\", \"uint\"],\n                          [ SEL(\"transfer(address,uint256)\"), \"0x8ba1f109551bD432803012645Ac136ddd64DBA72\", 3.14159e18 ]\n                      )\nOutput:\n  Description:        text/plain;Send 3.14159 TOKN to \"ricmoose.eth\" (0x8ba1f109551bD432803012645Ac136ddd64DBA72)?\n  Described Data:     0xa9059cbb0000000000000000000000000000000000000000000000002b992b75cbeb60000000000000000000000000008ba1f109551bd432803012645ac136ddd64dba72\n  i.e.                encodeWithSelector(\"transfer(address,uint256)\", \"0x8ba1f109551bD432803012645Ac136ddd64DBA72\", 3.14159e18)\n\nSigning:\n  Signed Transaction: 0xf8a280808094ab3045aa85cbcabb06ed3f3fe968fa545772727080b844a9059cbb0000000000000000000000000000000000000000000000002b992b75cbeb60000000000000000000000000008ba1f109551bd432803012645ac136ddd64dba7229a0f33ea492d326ac32d9b7ae203c61bf7cf0ac576fb0cf8be8e4c63dc89c90de12a06c8efb28aaf3b70c032b3bd1edfc664578c49f040cf749bb19b000da56507fb2\n```\n\n**Example: ERC-20 approve**\n\n```\nInput:\n  Address:            0xab3045AA85cBCaBb06eD3F3FE968fA5457727270\n  Describer Input:    0x095ea7b3000000000000000000000000000000000000000000000000000000000000000000000000000000008ba1f109551bd432803012645ac136ddd64dba720000000000000000000000000000000000000000000000002b992b75cbeb6000\n  i.e.                encode(\n                          [ \"bytes4\", \"address\", \"uint\"],\n                          [ SEL(\"approve(address,uint256)\"), \"0x8ba1f109551bD432803012645Ac136ddd64DBA72\", 3.14159e18 ]\n                      )\n\nOutput:\n  Description:        text/plain;Approve \"ricmoose.eth\" (0x8ba1f109551bD432803012645Ac136ddd64DBA72) to manage 3.14159 TOKN tokens?\n  Described Data:     0xa9059cbb0000000000000000000000000000000000000000000000002b992b75cbeb60000000000000000000000000008ba1f109551bd432803012645ac136ddd64dba72\n  i.e.                encodeWithSelector(\"approve(address,uint256)\", \"0x8ba1f109551bD432803012645Ac136ddd64DBA72\", 3.14159e18)\n\nSigning:\n  Signed Transaction: 0xf8a280808094ab3045aa85cbcabb06ed3f3fe968fa545772727080b844a9059cbb0000000000000000000000000000000000000000000000002b992b75cbeb60000000000000000000000000008ba1f109551bd432803012645ac136ddd64dba7229a0f33ea492d326ac32d9b7ae203c61bf7cf0ac576fb0cf8be8e4c63dc89c90de12a06c8efb28aaf3b70c032b3bd1edfc664578c49f040cf749bb19b000da56507fb2\n```\n\n**Example: ENS commit**\n\n```\nInput:\n  Address:            0xab3045AA85cBCaBb06eD3F3FE968fA5457727270\n  Describer Input:    0x0f0e373f000000000000000000000000000000000000000000000000000000000000000000000000000000000000000000000000000000000000000000000080000000000000000000000000e31f43c1d823afaa67a8c5fbb8348176d225a79e65462b0520ef7d3df61b9992ed3bea0c56ead753be7c8b3614e0ce01e4cac41b00000000000000000000000000000000000000000000000000000000000000087269636d6f6f7365000000000000000000000000000000000000000000000000\n  i.e.                encode(\n                          [ \"bytes4\", \"string\", \"address\", \"bytes32\"],\n                          [ SEL(\"commit(string,address,bytes32)\"), \"ricmoose\", \"0xE31f43C1d823AfAA67A8C5fbB8348176d225A79e\", \"0x65462b0520ef7d3df61b9992ed3bea0c56ead753be7c8b3614e0ce01e4cac41b\" ]\n                      )\n  \nOutput:\n  Description:        text/plain;Commit to the ENS name \"ricmoose.eth\" for 0xE31f43C1d823AfAA67A8C5fbB8348176d225A79e?\n  Described Data:     0xf14fcbc8e4a4f2bb818545497be34c7ab30e6e87e0001df4ba82e7c8b3f224fbaf255b91\n  i.e.                encodeWithSelector(\"commit(bytes32)\", makeCommitment(\"ricmoose\", \"0xE31f43C1d823AfAA67A8C5fbB8348176d225A79e\", \"0x65462b0520ef7d3df61b9992ed3bea0c56ead753be7c8b3614e0ce01e4cac41b\"))\n\nSigning:\n  Signed Transaction: 0xf88180808094ab3045aa85cbcabb06ed3f3fe968fa545772727080a4f14fcbc8e4a4f2bb818545497be34c7ab30e6e87e0001df4ba82e7c8b3f224fbaf255b912aa0a62b41d1ebda584fe84cf8a05f61b429fe4ec361e13c17f30a23281106b38a8da00bcdd896fe758d8f0cfac46445a48f76f5e9fe27790d67c51412cb98a12a0844\n```\n\n**Example: WETH mint()**\n\n```\nInput:\n  Address:            0xab3045AA85cBCaBb06eD3F3FE968fA5457727270\n  Describer Input:    0x1249c58b00000000000000000000000000000000000000000000000000000000\n  i.e.                encode(\n                          [ \"bytes4\" ],\n                          [ SEL(\"mint()\") ]\n                      )\n  Value:              1.23 ether\n\nOutput:\n  Description:        text/plain;Mint 1.23 WETH (spending 1.23 ether)?\n  Described Data:     0x1249c58b\n  i.e.                encodeWithSelector(\"mint()\")\n\nSigning:\n  Signed Transaction: 0xf86980808094ab3045aa85cbcabb06ed3f3fe968fa5457727270881111d67bb1bb0000841249c58b29a012df802e1394a97caab23c15c3a8c931668df4b2d6d604ca23f3f6b836d0aafca0071a2aebef6a9848616b4d618912f2003fb4babde3dba451b5246f866281a654\n```\n\n## Reference Implementation\n\n@TODO (consider adding it as one or more files in `../assets/eip-####/`)\n\nI will add examples in Solidity and JavaScript.\n\n\n## Security Considerations\n\n### Escaping Text\n\nWallets must be careful when displaying text provided by\ncontracts and proper efforts must be taken to sanitize\nit, for example, be sure to consider:\n\n- HTML could be embedded to attempt to trick web-based wallets into executing code using the script tag (possibly uploading any private keys to a server)\n- In general, extreme care must be used when rendering HTML; consider the ENS names `<span style=\"display:none\">not-</span>ricmoo.eth` or `&thinsp;ricmoo.eth`, which if rendered without care would appear as `ricmoo.eth`, which it is not\n- Other marks which require escaping could be included, such as quotes (`\"`), formatting (`\\n` (new line), `\\f` (form feed), `\\t` (tab), any of many non-standard whitespaces), back-slassh (`\\`)\n- UTF-8 has had bugs in the past which could allow arbitrary code execution and crashing renderers; consider using the UTF-8 replacement character (or *something*) for code-points outside common planes or common sub-sets within planes\n- Homoglyphs attacks\n- Right-to-left marks may affect rendering\n- Many other things, deplnding on your environment\n\n### Distinguished Signed Data\n\nApplications implementing this EIP to sign message data should\nensure there are no collisions within the data which could\nresult in ambiguously signed data.\n\n@TODO: Expand on this; compare packed data to ABI encoded data?\n\n### Enumeration\n\nIf an abort occurs during signing, the response from this call\nshould match the response from a declined signing request;\notherwise this could be used for enumeration attacks, etc. A\nrandom interactive-scale delay should also be added, otherwise\na < 10ms response could be interpreted as an error.\n\n### Replayablility\n\nTransactions contain an explicit nonce, but signed messages do\nnot.\n\nFor many purposes, such as signing in, a nonce could be\ninjected (using block.timestamp) into the data. The log in\nservice can verify this is a recent timestamp. The timestamp\nmay or may not be omitted from the description string in this\ncase, as it it largely useful internally only.\n\nIn general, when signing messages a nonce often makes sense to\ninclude to prevent the same signed data from being used in the\nfuture.\n\n\n## Copyright\n\nCopyright and related rights waived via [CC0](../LICENSE.md).\n","rawUrl":"https://raw.githubusercontent.com/ethereum/EIPs/master/EIPS/eip-3224.md","githubUrl":"https://github.com/ethereum/EIPs/blob/master/EIPS/eip-3224.md","officialUrl":"https://eips.ethereum.org/EIPS/eip-3224","views":0,"favorites":0,"popularity":6}