{"id":2481,"title":"eth/66 request identifier","description":"Introduces a request id for all requests of the eth protocol","authors":["Christoph Burgdorf"],"status":"Final","type":"Standards Track","category":"Networking","bucket":"others","created":"2020-01-17T00:00:00.000Z","requires":[2464],"replaces":[],"supersededBy":[],"tags":[],"body":"\n## Abstract\n\nThe `eth` protocol defines various request and response commands that are used to exchange data between Ethereum nodes. For example, to ask a peer node for a specific set of headers, a node sends it the [`GetBlockHeaders`](https://github.com/ethereum/devp2p/blob/40ab248bf7e017e83cc9812a4e048446709623e8/caps/eth.md#getblockheaders-0x03) command.\n\n*Citing from the [`GetBlockHeaders` spec definition](https://github.com/ethereum/devp2p/blob/40ab248bf7e017e83cc9812a4e048446709623e8/caps/eth.md#getblockheaders-0x03):*\n\n>`[block: {P, B_32}, maxHeaders: P, skip: P, reverse: P in {0, 1}]`\n\n>Require peer to return a `BlockHeaders` message. Reply must contain a number of block\nheaders, of rising number when `reverse` is `0`, falling when `1`, `skip` blocks apart,\nbeginning at block `block` (denoted by either number or hash) in the canonical chain, and\nwith at most `maxHeaders` items.\n\nThe node that receives the `GetBlockHeaders` command should answer it with the [`BlockHeaders`](https://github.com/ethereum/devp2p/blob/40ab248bf7e017e83cc9812a4e048446709623e8/caps/eth.md#blockheaders-0x04) response command accordingly.\n\n*Citing from the [`BlockHeaders` spec definition](https://github.com/ethereum/devp2p/blob/40ab248bf7e017e83cc9812a4e048446709623e8/caps/eth.md#blockheaders-0x04):* \n\n>`[blockHeader_0, blockHeader_1, ...]`\n\n>Reply to `GetBlockHeaders`. The items in the list (following the message ID) are block\nheaders in the format described in the main Ethereum specification, previously asked for\nin a GetBlockHeaders message. This may validly contain no block headers if none of the\nrequested block headers were found. The number of headers that can be requested in a\nsingle message may be subject to implementation-defined limits.\n\nLet's consider a client making many simultaneous requests for `GetBlockHeaders` to one of its peers. By nature it can not be guaranteed that the expected responses arrive in the same order as they were sent. For the client to associate the incoming responses to the correct requests it has to loop through all pending requests trying to match it with the incoming response based on its contents.\n\nThis can be particular tricky for responses that are ambiguous such as empty responses.\n\nThis EIP proposes to change the `GetBlockHeaders` and the `BlockHeaders` command to include a `request_id`.\n\nThe `request_id` is a 64-bit integer set by the client when it makes the request. On the responding side, the exact same `request_id` from the incoming request is put back into the response object.\n\nThis change allows the requesting client to match incoming responses **directly** back to their pending requests without going through all of the pending requests to check if they might match based on the response data.\n\nThe selected request/response pair serves as an example for many similar request/response pairs in the `eth` networking protocol.\n\n## Motivation\n\nThe lack of request identifiers in the request / response paris of the `eth` protocol puts unnecessary burden of code complexity into every Ethereum client. It also makes the communication slightly less efficient. Another argument can be made that the addition of request identifiers makes the protocol more aligned with the `les` protocol which **does** already defines request identifiers for each request / response pair.\n\n## Specification\n\nChange the following message types in the `eth` protocol:\n\n* `GetBlockHeaders (0x03)`\n   * **Current (eth/65):** `[block: {P, B_32}, maxHeaders: P, skip: P, reverse: P in {0, 1}]`\n   * **Then (eth/66)**: `[request_id: P, [block: {P, B_32}, maxHeaders: P, skip: P, reverse: P in {0, 1}]]`\n* `BlockHeaders (0x04)`\n   * **Current (eth/65):** `[blockHeader_0, blockHeader_1, ...]`\n   * **Then (eth/66)**: `[request_id: P, [blockHeader_0, blockHeader_1, ...]]`\n* `GetBlockBodies (0x05)`\n   * **Current (eth/65):** `[hash_0: B_32, hash_1: B_32, ...]`\n   * **Then (eth/66)**: `[request_id: P, [hash_0: B_32, hash_1: B_32, ...]]`\n* `GetPooledTransactions (0x09)`:\n   * **Current (eth/65)**`[hash_0: B_32, hash_1: B_32, ...]`\n   * **Then (eth/66)**`[request_id: P, [hash_0: B_32, hash_1: B_32, ...]]`\n* `PooledTransactions (0x0a)`:\n   * **Current (eth/65)**`[[nonce: P, receivingAddress: B_20, value: P, ...], ...]`\n   * **Then (eth/66)**`[request_id: P, [[nonce: P, receivingAddress: B_20, value: P, ...], ...]]`\n* `BlockBodies (0x06)`\n   * **Current (eth/65):** `[hash_0: B_32, hash_1: B_32, ...]`\n   * **Then (eth/66)**: `[request_id: P, [hash_0: B_32, hash_1: B_32, ...]]`\n* `GetNodeData (0x0d)`\n   * **Current (eth/65):** `[hash_0: B_32, hash_1: B_32, ...]`\n   * **Then (eth/66)**: `[request_id: P, [hash_0: B_32, hash_1: B_32, ...]]`\n* `NodeData (0x0e)`\n   * **Current (eth/65):** `[value_0: B, value_1: B, ...]`\n   * **Then (eth/66)**: `[request_id: P, [value_0: B, value_1: B, ...]]`\n* `GetReceipts (0x0f)`\n   * **Current (eth/65):** `[blockHash_0: B_32, blockHash_1: B_32, ...]`\n   * **Then (eth/66)**: `[request_id: P, [blockHash_0: B_32, blockHash_1: B_32, ...]]`\n* `Receipts (0x10)`\n   * **Current (eth/65):** `[[receipt_0, receipt_1], ...]`\n   * **Then (eth/66)**: `[request_id: P, [[receipt_0, receipt_1], ...]]`\n\n\nTo elaborate, each command is altered in the following way:\n\n1. Create a list with the `request_id` being the first element.\n2. Make the second element the list that defines the whole command in the current scheme.\n\nThe ``request_id`` has the following characteristics:\n\n* 64 bit integer\n* Doesn't need to be sequential (can be random)\n* Does allow duplicates\n\n## Rationale\n\n**Q: The efficiency gains might encourage clients to flood their peers with too many simultaneous requests**\n\nPeers can always throttle or disconnect if they don't feel treated well. This is the same as today.\n\n**Q: If `les` already defines the commands like this, why not just use the `les` protocol?**\n\nIn practice, peers that serve the `les` protocol are much harder to find in the network. The reasons for this are varied but might boil down to client defaults, immature implementations or missing incentives.\n\n**Q: Networking works today, isn't this just adding bloat?**\n\nThis is adding a single integer per command while at the same time reducing code complexity and improving networking efficiency. The addition seems justified.\n\n**Q: Why not demand request ids to be sequential?**\n\nAssuming request ids start always to count from `0` upon connection, things will become messy when\nconnections are lost and clients reconnect and start over with the same request ids that they had used\nin the previous session.\n\n**Q: Why allow duplicate request ids?**\n\nThe main benefit is flexibility and simplicity on the implementation side. Clients could decide to share\nthe same ids across multiple different request types since they are naturally separated anyway. Clients\ncould even decide to not rely on request ids at all, therefore using the same constant request id across\nall requests.\n\n**Q: Why choose a 64-bit integer for the request ids**\n\n64-bit integer were chosen to keep compatibility with the `les` protocol.\n\n## Backwards Compatibility\n\nThis EIP extends the `eth` protocol in a backwards incompatible way and requires rolling out a new version, `eth/66`. However, `devp2p` supports running multiple versions of the same wire protocol side-by-side, so rolling out `eth/66` does not require client coordination, since non-updated clients can keep using `eth/65`.\n\nThis EIP does not change the consensus engine, thus does *not* require a hard fork.\n\n## Test Cases\n\nThese testcases cover RLP-encoding of all the redefined messages types, where the `rlp` portion is the rlp-encoding of the message defined in the `data` portion. \n\n\n```json\n{\n  \"type\": \"GetBlockHeadersPacket66\",\n  \"rlp\": \"0xe8820457e4a000000000000000000000000000000000000000000000000000000000deadc0de050580\",\n  \"data\": {\n    \"RequestId\": 1111,\n    \"Origin\": {\n      \"Hash\": \"0x00000000000000000000000000000000000000000000000000000000deadc0de\",\n      \"Number\": 0\n    },\n    \"Amount\": 5,\n    \"Skip\": 5,\n    \"Reverse\": false\n  }\n}\n```\n\n```json\n{\n  \"type\": \"GetBlockHeadersPacket66\",\n  \"rlp\": \"0xca820457c682270f050580\",\n  \"data\": {\n    \"RequestId\": 1111,\n    \"Origin\": {\n      \"Hash\": \"0x0000000000000000000000000000000000000000000000000000000000000000\",\n      \"Number\": 9999\n    },\n    \"Amount\": 5,\n    \"Skip\": 5,\n    \"Reverse\": false\n  }\n}\n```\n\n```json\n{\n  \"type\": \"BlockHeadersPacket66\",\n  \"rlp\": \"0xf90202820457f901fcf901f9a00000000000000000000000000000000000000000000000000000000000000000a00000000000000000000000000000000000000000000000000000000000000000940000000000000000000000000000000000000000a00000000000000000000000000000000000000000000000000000000000000000a00000000000000000000000000000000000000000000000000000000000000000a00000000000000000000000000000000000000000000000000000000000000000b90100000000000000000000000000000000000000000000000000000000000000000000000000000000000000000000000000000000000000000000000000000000000000000000000000000000000000000000000000000000000000000000000000000000000000000000000000000000000000000000000000000000000000000000000000000000000000000000000000000000000000000000000000000000000000000000000000000000000000000000000000000000000000000000000000000000000000000000000000000000000000000000000000000000000000000000000000000000000000000000000000000000000000000000000000000000008208ae820d0582115c8215b3821a0a827788a00000000000000000000000000000000000000000000000000000000000000000880000000000000000\",\n  \"data\": {\n    \"RequestId\": 1111,\n    \"BlockHeadersPacket\": [\n      {\n        \"parentHash\": \"0x0000000000000000000000000000000000000000000000000000000000000000\",\n        \"sha3Uncles\": \"0x0000000000000000000000000000000000000000000000000000000000000000\",\n        \"miner\": \"0x0000000000000000000000000000000000000000\",\n        \"stateRoot\": \"0x0000000000000000000000000000000000000000000000000000000000000000\",\n        \"transactionsRoot\": \"0x0000000000000000000000000000000000000000000000000000000000000000\",\n        \"receiptsRoot\": \"0x0000000000000000000000000000000000000000000000000000000000000000\",\n        \"logsBloom\": \"0x00000000000000000000000000000000000000000000000000000000000000000000000000000000000000000000000000000000000000000000000000000000000000000000000000000000000000000000000000000000000000000000000000000000000000000000000000000000000000000000000000000000000000000000000000000000000000000000000000000000000000000000000000000000000000000000000000000000000000000000000000000000000000000000000000000000000000000000000000000000000000000000000000000000000000000000000000000000000000000000000000000000000000000000000000000000\",\n        \"difficulty\": \"0x8ae\",\n        \"number\": \"0xd05\",\n        \"gasLimit\": \"0x115c\",\n        \"gasUsed\": \"0x15b3\",\n        \"timestamp\": \"0x1a0a\",\n        \"extraData\": \"0x7788\",\n        \"mixHash\": \"0x0000000000000000000000000000000000000000000000000000000000000000\",\n        \"nonce\": \"0x0000000000000000\",\n        \"hash\": \"0x8c2f2af15b7b563b6ab1e09bed0e9caade7ed730aec98b70a993597a797579a9\"\n      }\n    ]\n  }\n}\n```\n\n```json\n{\n  \"type\": \"GetBlockBodiesPacket66\",\n  \"rlp\": \"0xf847820457f842a000000000000000000000000000000000000000000000000000000000deadc0dea000000000000000000000000000000000000000000000000000000000feedbeef\",\n  \"data\": {\n    \"RequestId\": 1111,\n    \"GetBlockBodiesPacket\": [\n      \"0x00000000000000000000000000000000000000000000000000000000deadc0de\",\n      \"0x00000000000000000000000000000000000000000000000000000000feedbeef\"\n    ]\n  }\n}\n```\n\n```json\n{\n  \"type\": \"BlockBodiesPacket66\",\n  \"rlp\": \"0xf902dc820457f902d6f902d3f8d2f867088504a817c8088302e2489435353535353535353535353535353535353535358202008025a064b1702d9298fee62dfeccc57d322a463ad55ca201256d01f62b45b2e1c21c12a064b1702d9298fee62dfeccc57d322a463ad55ca201256d01f62b45b2e1c21c10f867098504a817c809830334509435353535353535353535353535353535353535358202d98025a052f8f61201b2b11a78d6e866abc9c3db2ae8631fa656bfe5cb53668255367afba052f8f61201b2b11a78d6e866abc9c3db2ae8631fa656bfe5cb53668255367afbf901fcf901f9a00000000000000000000000000000000000000000000000000000000000000000a00000000000000000000000000000000000000000000000000000000000000000940000000000000000000000000000000000000000a00000000000000000000000000000000000000000000000000000000000000000a00000000000000000000000000000000000000000000000000000000000000000a00000000000000000000000000000000000000000000000000000000000000000b90100000000000000000000000000000000000000000000000000000000000000000000000000000000000000000000000000000000000000000000000000000000000000000000000000000000000000000000000000000000000000000000000000000000000000000000000000000000000000000000000000000000000000000000000000000000000000000000000000000000000000000000000000000000000000000000000000000000000000000000000000000000000000000000000000000000000000000000000000000000000000000000000000000000000000000000000000000000000000000000000000000000000000000000000000000000008208ae820d0582115c8215b3821a0a827788a00000000000000000000000000000000000000000000000000000000000000000880000000000000000\",\n  \"data\": {\n    \"RequestId\": 1111,\n    \"BlockBodiesPacket\": [\n      {\n        \"Transactions\": [\n          {\n            \"nonce\": \"0x8\",\n            \"gasPrice\": \"0x4a817c808\",\n            \"gas\": \"0x2e248\",\n            \"to\": \"0x3535353535353535353535353535353535353535\",\n            \"value\": \"0x200\",\n            \"input\": \"0x\",\n            \"v\": \"0x25\",\n            \"r\": \"0x64b1702d9298fee62dfeccc57d322a463ad55ca201256d01f62b45b2e1c21c12\",\n            \"s\": \"0x64b1702d9298fee62dfeccc57d322a463ad55ca201256d01f62b45b2e1c21c10\",\n            \"hash\": \"0x588df025c4c2d757d3e314bd3dfbfe352687324e6b8557ad1731585e96928aed\"\n          },\n          {\n            \"nonce\": \"0x9\",\n            \"gasPrice\": \"0x4a817c809\",\n            \"gas\": \"0x33450\",\n            \"to\": \"0x3535353535353535353535353535353535353535\",\n            \"value\": \"0x2d9\",\n            \"input\": \"0x\",\n            \"v\": \"0x25\",\n            \"r\": \"0x52f8f61201b2b11a78d6e866abc9c3db2ae8631fa656bfe5cb53668255367afb\",\n            \"s\": \"0x52f8f61201b2b11a78d6e866abc9c3db2ae8631fa656bfe5cb53668255367afb\",\n            \"hash\": \"0xf39c7dac06a9f3abf09faf5e30439a349d3717611b3ed337cd52b0d192bc72da\"\n          }\n        ],\n        \"Uncles\": [\n          {\n            \"parentHash\": \"0x0000000000000000000000000000000000000000000000000000000000000000\",\n            \"sha3Uncles\": \"0x0000000000000000000000000000000000000000000000000000000000000000\",\n            \"miner\": \"0x0000000000000000000000000000000000000000\",\n            \"stateRoot\": \"0x0000000000000000000000000000000000000000000000000000000000000000\",\n            \"transactionsRoot\": \"0x0000000000000000000000000000000000000000000000000000000000000000\",\n            \"receiptsRoot\": \"0x0000000000000000000000000000000000000000000000000000000000000000\",\n            \"logsBloom\": \"0x00000000000000000000000000000000000000000000000000000000000000000000000000000000000000000000000000000000000000000000000000000000000000000000000000000000000000000000000000000000000000000000000000000000000000000000000000000000000000000000000000000000000000000000000000000000000000000000000000000000000000000000000000000000000000000000000000000000000000000000000000000000000000000000000000000000000000000000000000000000000000000000000000000000000000000000000000000000000000000000000000000000000000000000000000000000\",\n            \"difficulty\": \"0x8ae\",\n            \"number\": \"0xd05\",\n            \"gasLimit\": \"0x115c\",\n            \"gasUsed\": \"0x15b3\",\n            \"timestamp\": \"0x1a0a\",\n            \"extraData\": \"0x7788\",\n            \"mixHash\": \"0x0000000000000000000000000000000000000000000000000000000000000000\",\n            \"nonce\": \"0x0000000000000000\",\n            \"hash\": \"0x8c2f2af15b7b563b6ab1e09bed0e9caade7ed730aec98b70a993597a797579a9\"\n          }\n        ]\n      }\n    ]\n  }\n}\n```\n\n```json\n{\n  \"type\": \"GetNodeDataPacket66\",\n  \"rlp\": \"0xf847820457f842a000000000000000000000000000000000000000000000000000000000deadc0dea000000000000000000000000000000000000000000000000000000000feedbeef\",\n  \"data\": {\n    \"RequestId\": 1111,\n    \"GetNodeDataPacket\": [\n      \"0x00000000000000000000000000000000000000000000000000000000deadc0de\",\n      \"0x00000000000000000000000000000000000000000000000000000000feedbeef\"\n    ]\n  }\n}\n```\n\n```json\n{\n  \"type\": \"NodeDataPacket66\",\n  \"rlp\": \"0xce820457ca84deadc0de84feedbeef\",\n  \"data\": {\n    \"RequestId\": 1111,\n    \"NodeDataPacket\": [\n      \"0xdeadc0de\",\n      \"0xfeedbeef\"\n    ]\n  }\n}\n```\n\n```json\n{\n  \"type\": \"GetReceiptsPacket66\",\n  \"rlp\": \"0xf847820457f842a000000000000000000000000000000000000000000000000000000000deadc0dea000000000000000000000000000000000000000000000000000000000feedbeef\",\n  \"data\": {\n    \"RequestId\": 1111,\n    \"GetReceiptsPacket\": [\n      \"0x00000000000000000000000000000000000000000000000000000000deadc0de\",\n      \"0x00000000000000000000000000000000000000000000000000000000feedbeef\"\n    ]\n  }\n}\n```\n\n```json\n{\n  \"type\": \"ReceiptsPacket66\",\n  \"rlp\": \"0xf90172820457f9016cf90169f901668001b9010000000000000000000000000000000000000000000000000000000000000000000000000000000000000000000000000000000000000000000000000000000000000000000000000000000000000000000000000000000000000000000000000000000000000000000000000000000000000000000000000000000000000000000000000000000000000000000000000000000000000000000000000000000000000000000000000000000000000000000000000000000000000000000000000000000000000000000000000000000000000000000000000000000000000000000000000000000000000000000000000000000000000000000000000000000000f85ff85d940000000000000000000000000000000000000011f842a0000000000000000000000000000000000000000000000000000000000000deada0000000000000000000000000000000000000000000000000000000000000beef830100ff\",\n  \"data\": {\n    \"RequestId\": 1111,\n    \"ReceiptsPacket\": [\n      [\n        {\n          \"root\": \"0x\",\n          \"status\": \"0x0\",\n          \"cumulativeGasUsed\": \"0x1\",\n          \"logsBloom\": \"0x00000000000000000000000000000000000000000000000000000000000000000000000000000000000000000000000000000000000000000000000000000000000000000000000000000000000000000000000000000000000000000000000000000000000000000000000000000000000000000000000000000000000000000000000000000000000000000000000000000000000000000000000000000000000000000000000000000000000000000000000000000000000000000000000000000000000000000000000000000000000000000000000000000000000000000000000000000000000000000000000000000000000000000000000000000000\",\n          \"logs\": [\n            {\n              \"address\": \"0x0000000000000000000000000000000000000011\",\n              \"topics\": [\n                \"0x000000000000000000000000000000000000000000000000000000000000dead\",\n                \"0x000000000000000000000000000000000000000000000000000000000000beef\"\n              ],\n              \"data\": \"0x0100ff\",\n              \"blockNumber\": \"0x0\",\n              \"transactionHash\": \"0x0000000000000000000000000000000000000000000000000000000000000000\",\n              \"transactionIndex\": \"0x0\",\n              \"blockHash\": \"0x0000000000000000000000000000000000000000000000000000000000000000\",\n              \"logIndex\": \"0x0\",\n              \"removed\": false\n            }\n          ],\n          \"transactionHash\": \"0x00000000000000000000000000000000000000000000000000000000deadc0de\",\n          \"contractAddress\": \"0x0000000000000000000000000000000000011111\",\n          \"gasUsed\": \"0x1b207\",\n          \"blockHash\": \"0x0000000000000000000000000000000000000000000000000000000000000000\",\n          \"transactionIndex\": \"0x0\"\n        }\n      ]\n    ]\n  }\n}\n```\n\n```json\n{\n  \"type\": \"GetPooledTransactionsPacket66\",\n  \"rlp\": \"0xf847820457f842a000000000000000000000000000000000000000000000000000000000deadc0dea000000000000000000000000000000000000000000000000000000000feedbeef\",\n  \"data\": {\n    \"RequestId\": 1111,\n    \"GetPooledTransactionsPacket\": [\n      \"0x00000000000000000000000000000000000000000000000000000000deadc0de\",\n      \"0x00000000000000000000000000000000000000000000000000000000feedbeef\"\n    ]\n  }\n}\n```\n\n```json\n{\n  \"type\": \"PooledTransactionsPacket66\",\n  \"rlp\": \"0xf8d7820457f8d2f867088504a817c8088302e2489435353535353535353535353535353535353535358202008025a064b1702d9298fee62dfeccc57d322a463ad55ca201256d01f62b45b2e1c21c12a064b1702d9298fee62dfeccc57d322a463ad55ca201256d01f62b45b2e1c21c10f867098504a817c809830334509435353535353535353535353535353535353535358202d98025a052f8f61201b2b11a78d6e866abc9c3db2ae8631fa656bfe5cb53668255367afba052f8f61201b2b11a78d6e866abc9c3db2ae8631fa656bfe5cb53668255367afb\",\n  \"data\": {\n    \"RequestId\": 1111,\n    \"PooledTransactionsPacket\": [\n      {\n        \"nonce\": \"0x8\",\n        \"gasPrice\": \"0x4a817c808\",\n        \"gas\": \"0x2e248\",\n        \"to\": \"0x3535353535353535353535353535353535353535\",\n        \"value\": \"0x200\",\n        \"input\": \"0x\",\n        \"v\": \"0x25\",\n        \"r\": \"0x64b1702d9298fee62dfeccc57d322a463ad55ca201256d01f62b45b2e1c21c12\",\n        \"s\": \"0x64b1702d9298fee62dfeccc57d322a463ad55ca201256d01f62b45b2e1c21c10\",\n        \"hash\": \"0x588df025c4c2d757d3e314bd3dfbfe352687324e6b8557ad1731585e96928aed\"\n      },\n      {\n        \"nonce\": \"0x9\",\n        \"gasPrice\": \"0x4a817c809\",\n        \"gas\": \"0x33450\",\n        \"to\": \"0x3535353535353535353535353535353535353535\",\n        \"value\": \"0x2d9\",\n        \"input\": \"0x\",\n        \"v\": \"0x25\",\n        \"r\": \"0x52f8f61201b2b11a78d6e866abc9c3db2ae8631fa656bfe5cb53668255367afb\",\n        \"s\": \"0x52f8f61201b2b11a78d6e866abc9c3db2ae8631fa656bfe5cb53668255367afb\",\n        \"hash\": \"0xf39c7dac06a9f3abf09faf5e30439a349d3717611b3ed337cd52b0d192bc72da\"\n      }\n    ]\n  }\n}\n```\n\n## Security Considerations\n\nNone\n\n## Copyright\nCopyright and related rights waived via [CC0](../LICENSE.md).\n","rawUrl":"https://raw.githubusercontent.com/ethereum/EIPs/master/EIPS/eip-2481.md","githubUrl":"https://github.com/ethereum/EIPs/blob/master/EIPS/eip-2481.md","officialUrl":"https://eips.ethereum.org/EIPS/eip-2481","views":0,"favorites":0,"popularity":48}